:1000000012C02CC02BC02AC029C028C027C026C0BF
:1000100025C024C023C022C021C020C01FC01EC0D4
:100020001DC01CC01BC011241FBECFE5D4E0DEBF25
:10003000CDBF11E0A0E6B0E0E6E4F6E002C0059036
:100040000D92A830B107D9F721E0A8E0B1E001C0D6
:100050001D92AA31B207E1F7D8D0F3C2D1CF9C01EB
:10006000207F332728BB98B3969596959E5F98BBC3
:10007000EFE9FFE03197F1F700C0000098B392502C
:1000800098BB8295807F88BB88B3869586958E5F66
:1000900088BB8FE99FE00197F1F700C0000088B3AB
:1000A000825088BB089582E090E0D9DF88E290E03A
:1000B000D6DF8CE090E0D3DF86E090E0D0DF0895DB
:1000C0009C01207F332728BB28B3269526952D5FDA
:1000D00028BBEFE9FFE03197F1F700C0000028B33B
:1000E000235028BB82959295907F9827807F9827F0
:1000F00088BB88B3869586958D5F88BB8FE99FE026
:100100000197F1F700C0000088B3835088BB0895C1
:1001100088E18AB98EE880BD83E389B910BC08956F
:10012000CF93DF93EC018881882331F0219690E012
:10013000C7DF89918111FBCFDF91CF9108950F9394
:100140001F93CF93DF93EC01009759F580E390E084
:10015000B7DF84E090E083DF20C09E01ADECBCEC13
:1001600056D28C0116950795169507951695079505
:100170009801220F331FC801880F991F880F991FFC
:10018000880F991F820F931F9E01281B390BC901ED
:10019000C09696DFE801209701F786E090E05FDFE8
:1001A00004C084E090E05BDFD8CFDF91CF911F9156
:1001B0000F9108955F9BFECF8CB190E00895CF938F
:1001C000DF9310920D0110920C01C0E0D0E0F2DF3D
:1001D000C25FDE4F8883C0910C01D0910D01219642
:1001E000D0930D01C0930C01CC30D10580F3DF9189
:1001F000CF910895805C87B987ED86B9349BFECF97
:1002000024B135B1822F932F08958FEF87BB4BDF39
:100210008FE99FE00197F1F700C0000079DF80E8E7
:1002200090E01DDF8BEC90E07BDF80EC90E017DF4F
:100230008CED90E075DF0AEF1CE0D5EFC9E0BFDF81
:100240008FE99FE00197F1F700C0000081E090E0A6
:1002500006DF9FEF20E742E0915020404040E1F769
:1002600000C000004CE050E06AE670E08EE091E0F3
:10027000DAD1282F392F121613060CF4BEC181E0F3
:1002800090E0EDDE80EC90E0EADE8BEE90E048DF7F
:100290006FEF80E792E0615080409040E1F700C04E
:1002A000000081E090E0DBDE80E890E0D8DE88E7C7
:1002B00090E036DF2FEF49E668E121504040604092
:1002C000E1F700C0000081E090E0C9DE8FE99FE027
:1002D0000197F1F700C0000080E890E0C0DE8CE8F4
:1002E00090E01EDF80EC90E0BADE89E990E018DF54
:1002F0009FEF29E648E1915020404040E1F700C0DF
:10030000000004BB15BB80E090E074DFE82EF92EFE
:10031000D4BBC5BB83E090E06DDF2E2D3F2DA9013E
:10032000495E534041335105F0F4873861E0960748
:10033000D4F0843F41E09407B4F480E890E08FDE8D
:100340008CE890E0EDDE80EC90E089DE89E990E0D9
:10035000E7DE6FEF89E698E1615080409040E1F779
:1003600000C00000EACFA90143585109493A51059C
:1003700008F067C0853691050CF4D1C08A3F91051D
:100380000CF0CDC020916000309161008091680038
:10039000909169008217930798F5281B390B3093C9
:1003A00061002093600081E090E059DE8FE99FE0DA
:1003B0000197F1F700C0000080E890E050DE86EA87
:1003C00090E0AEDE8FE99FE00197F1F700C00000FA
:1003D00080EC90E044DE80EB90E0A2DE8BEC90E0DD
:1003E0003EDE8091600090916100A9DE9FEF29E6DA
:1003F00048E1915020404040E1F700C000001FCF8D
:1004000081E090E02CDE80E890E029DE8BEB90E04C
:1004100087DE80EC90E023DE80EB90E081DE8BECE9
:1004200090E01DDE809160009091610088DE6FEFAA
:1004300089E698E1615080409040E1F700C00000FB
:10044000FECEA901455F51404736514008F067C0D4
:10045000853691050CF463C08A3F91050CF05FC0AE
:10046000209160003091610080916600909167005A
:100470002817390798F1281B390B30936100209316
:10048000600081E090E0EBDD8FE99FE00197F1F7FC
:1004900000C0000080E890E0E2DD86EA90E040DE07
:1004A0008FE99FE00197F1F700C0000080EC90E039
:1004B000D6DD80EB90E034DE8BEC90E0D0DD8091F7
:1004C0006000909161003BDE9FEF29E648E191508A
:1004D00020404040E1F700C00000B1CE81E090E054
:1004E000BEDD80E890E0BBDD8BEB90E019DE80ECB8
:1004F00090E0B5DD80EB90E013DE8BEC90E0AFDDBB
:1005000080916000909161001ADE6FEF89E698E1BA
:10051000615080409040E1F700C0000090CE295C1F
:1005200031092336310508F0ECCE833523E09207FC
:100530000CF4E7CE863B93400CF0E3CE20916000B4
:10054000309161008091640090916500281739070F
:1005500098F1281B390B309361002093600081E0F3
:1005600090E07DDD8FE99FE00197F1F700C000008A
:1005700080E890E074DD86EA90E0D2DD8FE99FE0CC
:100580000197F1F700C0000080EC90E068DD80EB9F
:1005900090E0C6DD8BEC90E062DD80916000909190
:1005A0006100CDDD9FEF29E648E1915020404040B9
:1005B000E1F700C0000043CE81E090E050DD80E82C
:1005C00090E04DDD8BEB90E0ABDD80EC90E047DD23
:1005D00080EB90E0A5DD8BEC90E041DD8091600048
:1005E00090916100ACDD6FEF89E698E16150804049
:1005F0009040E1F700C0000022CE81E090E02FDDC6
:1006000080EC90E02CDD8AEF90E08ADD18CEA29F8E
:10061000B001B39FC001A39F01D0B29F700D811D97
:100620001124911D0895FB01DC014150504030F030
:100630008D910190801919F40020B9F7881B990B4E
:060640000895F894FFCFBD
:10064600E803FA00C80096006400313830303839C3
:10065600303746423644000063686F6F7365207911
:100666006F75722073746174696F6E00312E20612C
:1006760020202020322E206200332E2063202020CE
:1006860020342E206400434F4E4649524D454400C7
:10069600417661696C2042616C3D00506C65617306
:1006A600652052656368617267650057656C636FA4
:1006B6006D6520746F204D6574726F00537761709D
:1006C60020796F757220636172640041434345531C
:1006D60053204752414E54454400414343455353EA
:0806E6002044454E4945440043
:00000001FF
